S00E00004441325F35432E7372656388
S11300000C9434000C944B000C943E000C943E0071
S11300100C943E000C943E000C943E000C943E0064
S11300200C943E000C943E000C943E000C943E0054
S11300300C943E000C943E000C943E000C943E0044
S11300400C943E000C943E000C943E000C943E0034
S11300500C943E000C943E000C943E000C943E0024
S11300600C943E000C943E0011241FBECFEFD8E048
S1130070DEBFCDBF0E9440000C9474000C940000BD
S113008080E284B915B884E08BB98FEF8BB981E035
S11300908DBB7894FFCF1F920F920FB60F9211244D
S11300A02F938F939F932FE784E89EE12150804004
S11300B09040E1F700C0000085B1809585B92FE735
S11300C084E89EE1215080409040E1F700C00000A8
S11300D085B1809585B9E09A9F918F912F910F906A
S10F00E00FBE0F901F901895F894FFCFEE
S9030000FC
