S00E00004441325F31432E737265638C
S11300000C9434000C943E000C943E000C943E007E
S11300100C943E000C943E000C943E000C943E0064
S11300200C943E000C943E000C943E000C943E0054
S11300300C943E000C943E000C943E000C943E0044
S11300400C943E000C943E000C943E000C943E0034
S11300500C943E000C943E000C943E000C943E0024
S11300600C943E000C943E0011241FBECFEFD8E048
S1130070DEBFCDBF0E9440000C9457000C940000DA
S11300801AB8259A2FE784E89EE1215080409040D9
S1130090E1F700C000002D982FE784E89EE121508D
S11300A080409040E1F700C000002D9AEBCFF89417
S10500B0FFCF7C
S9030000FC
