S00E00004441325F32432E737265638B
S11300000C9434000C943E000C943E000C943E007E
S11300100C943E000C943E000C943E000C943E0064
S11300200C943E000C943E000C943E000C943E0054
S11300300C943E000C943E000C943E000C943E0044
S11300400C943E000C943E000C943E000C943E0034
S11300500C943E000C943E000C943E000C943E0024
S11300600C943E000C943E0011241FBECFEFD8E048
S1130070DEBFCDBF0E9440000C945F000C940000D2
S11300808FEF84B915B81AB88BB915B8489915C04B
S11300902FE38DE093E0215080409040E1F700C0D1
S11300A000002D982FE38DE093E021508040904094
S11300B0E1F700C000002D9AE9CF2D98E7CFF8941E
S10500C0FFCF6C
S9030000FC
