:100000000C9434000C943E000C943E000C943E0082
:100010000C943E000C943E000C943E000C943E0068
:100020000C943E000C943E000C943E000C943E0058
:100030000C943E000C943E000C943E000C943E0048
:100040000C943E000C943E000C943E000C943E0038
:100050000C943E000C943E000C943E000C943E0028
:100060000C943E000C943E0011241FBECFEFD8E04C
:10007000DEBFCDBF0E9440000C9459000C940000DC
:10008000259A2D9820E030E04FEF92E047BD84B5EF
:10009000826084BD85B5816085BDA99BFECF2F5F41
:1000A0003F4F95BB2B3F31058CF385B1809585B9CA
:0600B000EDCFF894FFCF34
:00000001FF
