:100000000C9434000C9465010C9451000C94510034
:100010000C9451000C9451000C9451000C9451001C
:100020000C9451000C9451000C9451000C94560106
:100030000C9451000C9451000C9451000C945100FC
:100040000C9451000C9451000C9451000C945100EC
:100050000C9451000C9451000C9451000C945100DC
:100060000C9451000C94510011241FBECFEFD8E026
:10007000DEBFCDBF11E0A0E0B1E0E4E7FFE002C0E9
:1000800005900D92AA31B107D9F721E0AAE1B1E0BC
:1000900001C01D92A532B207E1F70E94C9000C947D
:1000A000B8070C9400001092C50087E68093C40046
:1000B000E1ECF0E0808188608083808180618083D2
:1000C000E2ECF0E080818F77808380818F7B80837A
:1000D000808110828081866080830895CF93C82FAD
:1000E0008A3019F48DE00E946E00E0ECF0E080812F
:1000F00085FFFDCFC093C600CF910895CF93DF93C6
:10010000EC018881882331F021960E946E0089914C
:100110008111FBCFDF91CF910895CF93DF930E94A0
:100120008001EC0185E290E09983888322E02A83B4
:100130009C838B8321E02D839F838E8325E02887FA
:100140009A87898723E02B879D878C8784E08E8719
:10015000E9E6F0E0808182608083E89ACE010E9427
:10016000F201CE01DF91CF910895E1E8F0E08081C6
:1001700088608083AFE6B0E08C9182608C9388E0E9
:100180009DE39093890080938800808183608083C1
:100190000895CF93DF93CDB7DEB7A8970FB6F89445
:1001A000DEBF0FBECDBF0E94530085E0E6E0F1E068
:1001B000DE01119601900D928A95E1F717B87894B7
:1001C0000E948D007C010E94B5000F2EFBE08F2E57
:1001D000F1E09F2EF02D0F2EFCE1CF2EF1E0DF2E6F
:1001E000F02D5E0128E0A20EB11C05E010E081E1D7
:1001F00091E00E947E008FEF93EDE0E3815090400C
:10020000E040E1F700C000000150110981F705E06E
:1002100010E085E191E00E947E00FFEF23ED80E396
:10022000F15020408040E1F700C00000015011096A
:1002300081F780911B01882351F010921B01C701A7
:100240000E945A03892B19F0C7010E94D70180919F
:100250001A01882351F210921A0180911F01909186
:1002600020019F938F939F928F92DF92CF920E9453
:10027000CE04F60180819181A28188879987AA871F
:10028000F50101900020E9F7EA19E8A7AE014A5FFD
:100290005F4FBE016F5F7F4FC7010E94EA020F9060
:1002A0000F900F900F900F900F909FCF1F920F9273
:1002B0000FB60F9211248F9381E080931A018F91D2
:1002C0000F900FBE0F901F9018951F920F920FB6B0
:1002D0000F9211248F9381E080931B018F910F90D7
:1002E0000FBE0F901F901895FC01A62FB72F9C01F1
:1002F0002B5F3F4F91919D93E217F307D9F7089534
:1003000080E190E00E94AD0320E1FC0111922A956A
:10031000E9F70895CF93DF93EC01DA01E881F981E1
:10032000508181E090E00A8002C0880F991F0A94F2
:10033000E2F78095852380836EBD0DB407FEFDCF67
:100340008EB58F872115310579F0FD012A0F3B1FEE
:10035000DF0190819EBD0DB407FEFDCF9EB59C933D
:100360003196E217F307A1F7E881F981208181E056
:1003700090E00A8002C0880F991F0A94E2F7822B4E
:1003800080838F85DF91CF91089560620E948A01FA
:1003900008950E948A01089520E030E040E050E096
:1003A0006FEF0E948A0108950E94CC01089520E019
:1003B00030E040E050E061EE0E948A010895CF9362
:1003C000DF931F92CDB7DEB720E7298321E030E02D
:1003D000AE014F5F5F4F67E00E94C5010F90DF9154
:1003E000CF910895FF920F931F93CF93DF931F92A6
:1003F000CDB7DEB78C01DC01ED91FC9111974291F4
:1004000081E090E09C0112960C90129702C0220F9E
:10041000331F0A94E2F7242B20831396ED91FC916D
:10042000149742919C0115960C90159702C0220FCB
:10043000331F0A94E2F7242B2083ED91FC9111974E
:1004400040819C0112960C90129702C0220F331F1C
:100450000A94E2F7242B20831396ED91FC911497D4
:100460003081AC0115960C90159702C0440F551FB2
:100470000A94E2F7242F2095232320832CB52061B2
:100480002CBD2CB520642CBD1696ED91FC911797D0
:1004900042919C0118960C90189702C0220F331FAE
:1004A0000A94E2F7242B20831996ED91FC911A9778
:1004B00042919C011B960C901B9702C0220F331F88
:1004C0000A94E2F7242B20831C96ED91FC911D9752
:1004D00022911E960C9002C0880F991F0A94E2F791
:1004E0008095822380838CB5877F8CBD8CB58B7F74
:1004F0008CBD8CB58E7F8CBD8CB58D7F8CBD8DB544
:1005000081608DBD8CB58F7D8CBD20E030E040E0FA
:1005100050E062EEC8010E948A0120E030E040E035
:1005200050E061EEC8010E948A01C8010E94DF010B
:100530008FE0898321E030E0AE014F5F5F4F60E0E4
:10054000C8010E94C5010F2EFFE3FF2EF02DF98296
:1005500021E030E0AE014F5F5F4F61E0C8010E94D3
:10056000C501F98221E030E0AE014F5F5F4F6CE1E1
:10057000C8010E94C50184E0898321E030E0AE011A
:100580004F5F5F4F6DE1C8010E94C501198221E0F4
:1005900030E0AE014F5F5F4F62E0C8010E94C501CD
:1005A0000F90DF91CF911F910F91FF900895CF93FE
:1005B000DF931F92CDB7DEB720E3298321E030E03F
:1005C000AE014F5F5F4F67E00E94C5010F90DF9162
:1005D000CF910895CF92DF92EF92FF920F931F93E6
:1005E000CF93DF9300D000D000D0CDB7DEB78C0121
:1005F0006B017A010E94D702BE016F5F7F4FC60177
:100600000E94740125E030E0AE014F5F5F4F60E172
:10061000C8010E94C501BE016F5F7F4FC6010E94E5
:10062000740125E030E0AE014F5F5F4F6AE0C80122
:100630000E94C501D70192962C9130E0A7014E5F30
:100640005F4F60EAC8010E948A0121E030E0AE01FC
:100650004A5F5F4F60E0C8010E94C9018E818E7FB2
:100660008E8321E030E0AE014A5F5F4F60E0C80159
:100670000E94C501D8011396ED91FC911497208139
:1006800081E090E015960C9002C0880F991F0A94A3
:10069000E2F7822B808326960FB6F894DEBF0FBE5A
:1006A000CDBFDF91CF911F910F91FF90EF90DF9021
:1006B000CF900895EF92FF920F931F93CF93DF9304
:1006C0001F92CDB7DEB78C01DC011396ED91FC9142
:1006D0001497208181E090E015960C9002C0880F5D
:1006E000991F0A94E2F7809582238083C8010E94B3
:1006F000D401F801878585FD09C084FD0AC00F2E4D
:10070000FEEFEF2EFF24FA94F02D06C0E12CF12C21
:1007100003C0EE24EA94FE2CC8010E94D70221E017
:1007200030E0AE014F5F5F4F60E0C8010E94C90139
:1007300089818160898321E030E0AE014F5F5F4FA6
:1007400060E0C8010E94C501C7010F90DF91CF9101
:100750001F910F91FF90EF9008950F931F93CF93E8
:10076000DF938230910510F482E090E0E091230164
:10077000F091240120E030E0A0E0B0E0309719F1E2
:10078000408151810281138148175907C8F08417AD
:10079000950769F4109731F012960C9312971396FF
:1007A0001C9327C0009323011093240122C021151C
:1007B000310519F04217530718F49A01BD01EF01F2
:1007C000DF01F801DBCF21153105F9F0281B390BCA
:1007D0002430310580F48A819B816115710521F0F7
:1007E000FB019383828304C09093240180932301AF
:1007F000FE01329644C0FE01E20FF31F81939193F4
:1008000022503109398328833AC020912101309147
:100810002201232B41F420910201309103013093F6
:100820002201209321012091000130910101211525
:10083000310541F42DB73EB74091040150910501B7
:10084000241B350BE0912101F0912201E217F307FF
:10085000A0F42E1B3F0B2817390778F0AC014E5F30
:100860005F4F2417350748F04E0F5F1F509322014A
:10087000409321018193919302C0E0E0F0E0CF0129
:10088000DF91CF911F910F910895CF93DF93009740
:1008900009F481C0FC01329713821282A0912301D6
:1008A000B0912401109781F420813181820F931F30
:1008B00020912101309122012817390751F5F09339
:1008C0002201E093210167C0ED0120E030E0CE1766
:1008D000DF0740F44A815B819E0141155105F1F02B
:1008E000EA01F5CFD383C28340815181840F951FE4
:1008F000C817D90759F488819981840F951F0296EA
:10090000918380838A819B81938382832115310522
:1009100029F4F0932401E09323013DC0E901FB8316
:10092000EA8349915991C40FD51FEC17FD0761F473
:1009300080819181840F951F0296E90199838883B4
:10094000828193819B838A83E0E0F0E012968D910F
:100950009C911397009719F0FD01DC01F7CF8D9161
:100960009C9111979D012E5F3F4F820F931F209105
:100970002101309122012817390769F4309729F4B1
:10098000109224011092230102C013821282B093AC
:100990002201A0932101DF91CF910895AEE0B0E054
:1009A000E4EDF4E00C948F070D891E8986E08C83BA
:1009B0001A8309838FEF9FE79E838D83AE01475E85
:1009C0005F4F6F89788DCE0101960E94F004EF8110
:1009D000F885E00FF11F10822E96E4E00C94AB072F
:1009E000ABE0B0E0E6EFF4E00C9481076C017B0132
:1009F0008A01FC0117821682838181FFCCC1CE015E
:100A000001963C01F6019381F70193FD859193FFD7
:100A100081917F01882309F4BAC1853239F493FDAD
:100A2000859193FF81917F01853229F4B60190E091
:100A30000E94E706E7CF912C212C312CFFE1F31522
:100A4000D8F08B3279F038F4803279F08332A1F427
:100A5000232D20611DC08D3261F0803369F4232D78
:100A6000216016C0832D8260382EE32DE4603E2E77
:100A70002AC0F32DF8601DC037FC2DC020ED280FD3
:100A80002A3040F08E32B9F436FC81C1232D206427
:100A9000322E19C036FE06C08AE0989E200D112421
:100AA000922E11C0EAE02E9E200D1124222EF32D4D
:100AB000F0623F2E08C08C3621F4832D8068382EDA
:100AC00002C0883641F4F70193FD859193FF81912F
:100AD0007F018111B3CF982F9F7D9554933028F4D7
:100AE0000C5F1F4F9FE399830DC0833631F083372E
:100AF00071F0833509F059C021C0F80180818983E4
:100B00000E5F1F4F88248394912C530113C028013A
:100B1000F2E04F0E511CF801A080B18036FE03C0F8
:100B2000692D70E002C06FEF7FEFC5010E94DC0607
:100B30004C018201F32DFF773F2E16C0280122E0E1
:100B4000420E511CF801A080B18036FE03C0692D11
:100B500070E002C06FEF7FEFC5010E94D1064C012B
:100B6000F32DF0683F2E820133FC1BC0822D90E0F4
:100B700088169906B0F4B60180E290E00E94E7067C
:100B80002A94F4CFF50137FC859137FE81915F01FE
:100B9000B60190E00E94E70621102A9421E0821A13
:100BA00091088114910471F7E8C0843611F08936F8
:100BB00041F5F80137FE07C0608171818281938120
:100BC0000C5F1F4F08C060817181072E000C880BDD
:100BD000990B0E5F1F4FF32DFF763F2E97FF09C035
:100BE00090958095709561957F4F8F4F9F4FF068DE
:100BF0003F2E2AE030E0A3010E942307882E8618AA
:100C000045C0853731F4232D2F7EB22E2AE030E007
:100C100025C0932D997FB92E8F36C1F018F48835F1
:100C200079F0B5C0803719F0883721F0B0C0E92FCE
:100C3000E061BE2EB4FE0DC0FB2DF460BF2E09C0D6
:100C400034FE0AC0292F2660B22E06C028E030E00C
:100C500005C020E130E002C020E132E0F801B7FE3B
:100C600007C060817181828193810C5F1F4F06C034
:100C70006081718180E090E00E5F1F4FA3010E94B0
:100C80002307882E8618FB2DFF773F2E36FE0DC0DA
:100C9000232D2E7FA22E891458F434FE0BC032FC73
:100CA00009C0832D8E7EA82E05C0B82CA32C03C0AE
:100CB000B82C01C0B92CA4FE0FC0FE01E80DF11D37
:100CC0008081803321F49A2D997EA92E09C0A2FE3D
:100CD00006C0B394B39404C08A2D867809F0B39407
:100CE000A3FC11C0A0FE06C0B21488F4280C922CFC
:100CF0009B180EC0B21460F4B60180E290E00E942E
:100D0000E706B394F7CFB21418F42B1802C0982C4E
:100D1000212CA4FE10C0B60180E390E00E94E706FB
:100D2000A2FE17C0A1FC03C088E790E002C088E5DE
:100D300090E0B6010CC08A2D867859F0A1FE02C061
:100D40008BE201C080E2A7FC8DE2B60190E00E9438
:100D5000E706891438F4B60180E390E00E94E706C4
:100D60009A94F7CF8A94F301E80DF11D8081B601C2
:100D700090E00E94E7068110F5CF222009F442CED0
:100D8000B60180E290E00E94E7062A94F6CFF601D1
:100D90008681978102C08FEF9FEF2B96E2E10C9442
:100DA0009D07FC010590615070400110D8F78095B7
:100DB00090958E0F9F1F0895FC0161507040019027
:100DC0000110D8F7809590958E0F9F1F08950F936F
:100DD0001F93CF93DF93FB01238121FD03C08FEF8E
:100DE0009FEF2CC022FF16C0468157812481358198
:100DF0004217530744F4A081B1819D012F5F3F4FFB
:100E0000318320838C93268137812F5F3F4F378337
:100E1000268314C08B01EC01FB010084F185E02DD9
:100E20000995892BE1F6D80116968D919C9117971B
:100E3000019617969C938E931697CE01DF91CF91D2
:100E40001F910F910895FA01AA27283051F12031FE
:100E500081F1E8946F936E7F6E5F7F4F8F4F9F4F4E
:100E6000AF4FB1E03ED0B4E03CD0670F781F891F90
:100E70009A1FA11D680F791F8A1F911DA11D6A0F5E
:100E8000711D811D911DA11D20D009F468943F9111
:100E90002AE0269F11243019305D3193DEF6CF0110
:100EA0000895462F4770405D4193B3E00FD0C9F7D6
:100EB000F6CF462F4F70405D4A3318F0495D31FD43
:100EC0004052419302D0A9F7EACFB4E0A695979596
:100ED000879577956795BA95C9F70097610571056C
:100EE00008959B01AC010A2E0694579547953795B6
:100EF0002795BA95C9F7620F731F841F951FA01D10
:100F000008952F923F924F925F926F927F928F92AD
:100F10009F92AF92BF92CF92DF92EF92FF920F9388
:100F20001F93CF93DF93CDB7DEB7CA1BDB0B0FB692
:100F3000F894DEBF0FBECDBF09942A88398848884F
:100F40005F846E847D848C849B84AA84B984C884E5
:100F5000DF80EE80FD800C811B81AA81B981CE0FDC
:100F6000D11D0FB6F894DEBF0FBECDBFED010895C1
:040F7000F894FFCF23
:100F740000002501200011111111112564002566BE
:0A0F84000037320A0037340A00007B
:00000001FF
