S00B00004441342E7372656360
S11300000C9434000C9451000C9451000C94510045
S11300100C9451000C9451000C9451000C94510018
S11300200C9451000C9451000C9451000C94510008
S11300300C9451000C9451000C9451000C945100F8
S11300400C9451000C9451000C9451000C945100E8
S11300500C9451000C94FE000C9451000C9451002B
S11300600C9451000C94510011241FBECFEFD8E022
S1130070DEBFCDBF11E0A0E0B1E0E6E4F9E002C0EC
S113008005900D92AE3DB107D9F721E0AEEDB1E098
S113009001C01D92A53EB207E1F70E94A9000C948D
S11300A0A1040C9400001092C50087E68093C4005C
S11300B0E1ECF0E0808188608083808180618083CE
S11300C0E2ECF0E080818F77808380818F7B808376
S11300D0808110828081866080830895CF93C82FA9
S11300E08A3019F48DE00E946E00E0ECF0E080812B
S11300F085FFFDCFC093C600CF910895CF93DF93C2
S1130100EC018881882331F021960E946E00899148
S11301108111FBCFDF91CF910895ACE7B0E01C9241
S1130120EAE7F0E087E080838C9180648C938C9183
S113013080628C93808188608083808180688083E2
S113014080818062808310927B00808180648083C0
S113015008950E9453000E948D0017B82FEF39E6CE
S113016088E1215030408040E1F700C0000085E87C
S113017091E00E947E009FEF27EA31E691502040F3
S11301803040E1F700C0000080E991E00E947E0069
S11301908FEF97EA21E6815090402040E1F700C0BC
S11301A000008EE991E00E947E003FEF83E294EF2D
S11301B020E03150804090402040D9F700C000003A
S11301C087E791E00E947E003AEA86EE96E921E014
S11301D03150804090402040D9F7000089E691E0FA
S11301E00E947E003AEA86EE96E921E03150804092
S11301F090402040D9F700007894FFCF1F920F92CF
S11302000FB60F9211242F933F934F935F936F93E5
S11302107F938F939F93AF93BF93EF93FF938091BB
S1130220790090E09093E3018093E2014091E20130
S11302305091E30124EF31E0429FC001439F900DB0
S1130240529F900D1124892F992786958695909316
S1130250E3018093E2018091E2019091E301880F30
S1130260991F9093E3018093E2018091E2019091C0
S1130270E30180969093E3018093E2018091E2018F
S11302809091E3019F938F938AE891E09F938F93DA
S113029080EE91E09F938F930E94B7018BE391E0EE
S11302A00E947E002FEF87EA91E621508040904023
S11302B0E1F700C0000089E291E00E947E002FEF88
S11302C083E294EF215080409040E1F700C00000A9
S11302D080E091E00E947E0080EE91E00E947E002A
S11302E08DEB91E00E947E002FEF83E294EF21508A
S11302F080409040E1F700C000008FEB91E00E9445
S11303007E002FEF83E294EF215080409040E1F78C
S113031000C000008FEC91E00E947E002FEF83E28A
S113032094EF215080409040E1F700C000002FEF8F
S113033083ED90E3215080409040E1F700C000003D
S11303400F900F900F900F900F900F90FF91EF91DF
S1130350BF91AF919F918F917F916F915F914F91D9
S11303603F912F910F900FBE0F901F901895AEE004
S1130370B0E0EDEBF1E00C9478040D891E8986E081
S11303808C831A8309838FEF9FE79E838D83AE014D
S1130390475E5F4F6F89788DCE0101960E94D90127
S11303A0EF81F885E00FF11F10822E96E4E00C94A3
S11303B09404ABE0B0E0EFEDF1E00C946A046C015E
S11303C07B018A01FC0117821682838181FFCCC1E3
S11303D0CE0101963C01F6019381F70193FD8591CD
S11303E093FF81917F01882309F4BAC1853239F4DE
S11303F093FD859193FF81917F01853229F4B601A4
S113040090E00E94D003E7CF912C212C312CFFE106
S1130410F315D8F08B3279F038F4803279F08332E6
S1130420A1F4232D20611DC08D3261F0803369F465
S1130430232D216016C0832D8260382EE32DE460C5
S11304403E2E2AC0F32DF8601DC037FC2DC020EDD0
S1130450280F2A3040F08E32B9F436FC81C1232DA6
S11304602064322E19C036FE06C08AE0989E200D04
S11304701124922E11C0EAE02E9E200D1124222E6A
S1130480F32DF0623F2E08C08C3621F4832D806852
S1130490382E02C0883641F4F70193FD859193FF0D
S11304A081917F018111B3CF982F9F7D9554933013
S11304B028F40C5F1F4F9FE399830DC0833631F0FE
S11304C0833771F0833509F059C021C0F801808168
S11304D089830E5F1F4F88248394912C530113C08A
S11304E02801F2E04F0E511CF801A080B18036FEC5
S11304F003C0692D70E002C06FEF7FEFC5010E9459
S1130500C5034C018201F32DFF773F2E16C028014D
S113051022E0420E511CF801A080B18036FE03C0D7
S1130520692D70E002C06FEF7FEFC5010E94BA032E
S11305304C01F32DF0683F2E820133FC1BC0822D49
S113054090E088169906B0F4B60180E290E00E942B
S1130550D0032A94F4CFF50137FC859137FE8191BD
S11305605F01B60190E00E94D00321102A9421E09B
S1130570821A91088114910471F7E8C0843611F04D
S1130580893641F5F80137FE07C0608171818281A7
S113059093810C5F1F4F08C060817181072E000C8E
S11305A0880B990B0E5F1F4FF32DFF763F2E97FF9D
S11305B009C090958095709561957F4F8F4F9F4F9F
S11305C0F0683F2E2AE030E0A3010E940C04882E3C
S11305D0861845C0853731F4232D2F7EB22E2AE0AC
S11305E030E025C0932D997FB92E8F36C1F018F4D1
S11305F0883579F0B5C0803719F0883721F0B0C05C
S1130600E92FE061BE2EB4FE0DC0FB2DF460BF2EB9
S113061009C034FE0AC0292F2660B22E06C028E085
S113062030E005C020E130E002C020E132E0F80112
S1130630B7FE07C060817181828193810C5F1F4F77
S113064006C06081718180E090E00E5F1F4FA301BE
S11306500E940C04882E8618FB2DFF773F2E36FE51
S11306600DC0232D2E7FA22E891458F434FE0BC006
S113067032FC09C0832D8E7EA82E05C0B82CA32C75
S113068003C0B82C01C0B92CA4FE0FC0FE01E80DB4
S1130690F11D8081803321F49A2D997EA92E09C001
S11306A0A2FE06C0B394B39404C08A2D867809F0E0
S11306B0B394A3FC11C0A0FE06C0B21488F4280CA5
S11306C0922C9B180EC0B21460F4B60180E290E044
S11306D00E94D003B394F7CFB21418F42B1802C0BD
S11306E0982C212CA4FE10C0B60180E390E00E9457
S11306F0D003A2FE17C0A1FC03C088E790E002C0AB
S113070088E590E0B6010CC08A2D867859F0A1FEE8
S113071002C08BE201C080E2A7FC8DE2B60190E04A
S11307200E94D003891438F4B60180E390E00E945B
S1130730D0039A94F7CF8A94F301E80DF11D8081D8
S1130740B60190E00E94D0038110F5CF222009F475
S113075042CEB60180E290E00E94D0032A94F6CF04
S1130760F6018681978102C08FEF9FEF2B96E2E11D
S11307700C948604FC010590615070400110D8F778
S1130780809590958E0F9F1F0895FC0161507040D5
S113079001900110D8F7809590958E0F9F1F0895B2
S11307A00F931F93CF93DF93FB01238121FD03C09C
S11307B08FEF9FEF2CC022FF16C046815781248102
S11307C035814217530744F4A081B1819D012F5F05
S11307D03F4F318320838C93268137812F5F3F4F96
S11307E03783268314C08B01EC01FB010084F1855F
S11307F0E02D0995892BE1F6D80116968D919C91EF
S11308001797019617969C938E931697CE01DF91B6
S1130810CF911F910F910895FA01AA27283051F121
S1130820203181F1E8946F936E7F6E5F7F4F8F4F1D
S11308309F4FAF4FB1E03ED0B4E03CD0670F781F7C
S1130840891F9A1FA11D680F791F8A1F911DA11D61
S11308506A0F711D811D911DA11D20D009F468949A
S11308603F912AE0269F11243019305D3193DEF642
S1130870CF010895462F4770405D4193B3E00FD0F8
S1130880C9F7F6CF462F4F70405D4A3318F0495DE3
S113089031FD4052419302D0A9F7EACFB4E0A695C6
S11308A09795879577956795BA95C9F700976105E8
S11308B0710508959B01AC010A2E0694579547953E
S11308C037952795BA95C9F7620F731F841F951F33
S11308D0A01D08952F923F924F925F926F927F9244
S11308E08F929F92AF92BF92CF92DF92EF92FF923C
S11308F00F931F93CF93DF93CDB7DEB7CA1BDB0BE8
S11309000FB6F894DEBF0FBECDBF09942A8839888C
S113091048885F846E847D848C849B84AA84B98493
S1130920C884DF80EE80FD800C811B81AA81B9819F
S1130930CE0FD11D0FB6F894DEBF0FBECDBFED01B3
S10909400895F894FFCFB6
S1130946474554202F7570646174653F6B65793D26
S113095653565A5949564159424C574448383646D3
S1130966266669656C64313D0041542B43495053F6
S1130976454E443D302C34340D0A0041542B434932
S11309865053544152543D302C22544350222C226D
S11309966170692E7468696E67737065616B2E6326
S11309A66F6D222C38300D0A0041542B4349504DAB
S11309B655583D310D0A0041542B43574D4F44457C
S11309C63D310D0A0041540D0A00256400256600D8
S11309D641542B43574D4F44453D310D0A00415474
S11309E62B43574A41503D225275697A222C225F85
S11309F64369656C6F343232343934220D0A00414E
S1130A06542B434950434C4F53453D300D0A004146
S1110A16542B434950434C4F53450D0A0000E6
S9030000FC
