:100000000C9434000C9446000C9446000C9446006A
:100010000C9446000C9446000C9446000C94460048
:100020000C9446000C9446000C9446000C94460038
:100030000C9446000C9446000C9446000C94460028
:100040000C9446000C9446000C9446000C94460018
:100050000C9446000C9446000C9446000C94460008
:100060000C9446000C94460011241FBECFEFD8E03C
:10007000DEBFCDBF21E0A0E0B1E001C01D92A13202
:10008000B207E1F70E9468010C9412030C9400007F
:10009000239A539A8AB180668AB993EA94BD81E023
:1000A00085BD9093B0008093B1000895CF92DF9208
:1000B000EF92FF920F931F93CF93DF938B01BC01BD
:1000C000990F880B990B0E94190220E030E048EC50
:1000D00052E40E946F0120E030E04FE753E40E94B9
:1000E000A5020E94E1016B017C01EB01B801110F37
:1000F000880B990B0E94190220E030E048EC52E492
:100100000E946F0120E030E04FE753E40E94A50217
:100110000E94E101DD236CF17723A4F017BC960166
:10012000CF3FD10519F014F02FEF30E028BD109229
:10013000B3006F3F710519F014F06FEF70E060933A
:10014000B40049C017BC9601CF3FD10519F014F097
:100150002FEF30E028BD7195619571096F3F7105F2
:1001600019F014F06FEF70E06093B3001092B400D8
:1001700032C07723BCF0222733272C193D092F3FAB
:10018000310519F014F02FEF30E027BD18BC1092A4
:10019000B3006F3F710519F014F06FEF70E06093DA
:1001A000B40019C0222733272C193D092F3F3105F0
:1001B00019F014F02FEF30E027BD18BC7195619550
:1001C00071096F3F710519F014F06FEF70E06093E3
:1001D000B3001092B400DF91CF911F910F91FF9067
:1001E000EF90DF90CF9008951092C50083E3809345
:1001F000C400E1ECF0E0808188618083E2ECF0E013
:100200008081866080830895CF93DF9310920001F0
:10021000E0ECF0E0C6ECD0E091E03BC080818823C8
:10022000ECF7888180932001A09102018091200148
:10023000B0E0A95FBE4F8C93809120018C3369F1AF
:10024000809120018C3619F49093010122C0809195
:100250002001823719F4109201011BC08091010125
:10026000882361F020912001022E000C330B309383
:10027000060120930501909300010BC020912001FD
:10028000022E000C330B30930401209303011092D3
:10029000000180910001882309F2DF91CF91089538
:1002A0000E94040180910001882359F060910501AA
:1002B0007091060180910301909104010E94560003
:1002C000089560E070E080E090E00E94560008959C
:1002D0000E94F4000E9448000E945001FDCF0E943D
:1002E00083010C946B020E94640258F00E945D022C
:1002F00040F029F45F3F29F00C94540251110C9402
:100300009F020C945A020E947C0268F39923B1F375
:10031000552391F3951B550BBB27AA27621773072B
:10032000840738F09F5F5F4F220F331F441FAA1FBF
:10033000A9F335D00E2E3AF0E0E832D0915050407B
:10034000E695001CCAF72BD0FE2F29D0660F771F29
:10035000881FBB1F261737074807AB07B0E809F00F
:10036000BB0B802DBF01FF2793585F4F3AF09E3F94
:10037000510578F00C9454020C949F025F3FE4F313
:10038000983ED4F3869577956795B795F7959F5FD7
:10039000C9F7880F911D9695879597F90895E1E023
:1003A000660F771F881FBB1F621773078407BA0782
:1003B00020F0621B730B840BBA0BEE1F88F7E095DD
:1003C00008950E94E8016894B1110C949F02089569
:1003D0000E94840288F09F5798F0B92F9927B7514F
:1003E000B0F0E1F0660F771F881F991F1AF0BA95D9
:1003F000C9F714C0B13091F00E949E02B1E0089597
:100400000C949E02672F782F8827B85F39F0B93F88
:10041000CCF3869577956795B395D9F73EF490958B
:100420008095709561957F4F8F4F9F4F0895E89409
:1004300009C097FB3EF490958095709561957F4F2C
:100440008F4F9F4F9923A9F0F92F96E9BB279395DA
:10045000F695879577956795B795F111F8CFFAF4EA
:10046000BB0F11F460FF1BC06F5F7F4F8F4F9F4F1B
:1004700016C0882311F096E911C0772321F09EE879
:10048000872F762F05C0662371F096E8862F70E0DF
:1004900060E02AF09A95660F771F881FDAF7880FB9
:1004A0009695879597F9089597F99F6780E870E08A
:1004B00060E008959FEF80EC089500240A941616DA
:1004C000170618060906089500240A941216130642
:1004D000140605060895092E0394000C11F48823D0
:1004E00052F0BB0F40F4BF2B11F460FF04C06F5FEC
:1004F0007F4F8F4F9F4F089557FD9058440F551FC2
:1005000059F05F3F71F04795880F97FB991F61F095
:100510009F3F79F087950895121613061406551F0C
:10052000F2CF4695F1DF08C0161617061806991F78
:10053000F1CF86957105610508940895E894BB276D
:1005400066277727CB0197F908950E94B8020C948B
:100550006B020E945D0238F00E94640220F0952335
:1005600011F00C9454020C945A0211240C949F0222
:100570000E947C0270F3959FC1F3950F50E0551FC8
:10058000629FF001729FBB27F00DB11D639FAA27E8
:10059000F00DB11DAA1F649F6627B00DA11D661F37
:1005A000829F2227B00DA11D621F739FB00DA11D58
:1005B000621F839FA00D611D221F749F3327A00D12
:1005C000611D231F849F600D211D822F762F6A2FAE
:1005D00011249F5750409AF0F1F088234AF0EE0F13
:1005E000FF1FBB1F661F771F881F91505040A9F740
:1005F0009E3F510580F00C9454020C949F025F3F83
:10060000E4F3983ED4F3869577956795B795F7957B
:10061000E7959F5FC1F7FE2B880F911D96958795F3
:0806200097F90895F894FFCF4B
:00000001FF
