:100000000C9434000C943E000C943E000C943E0082
:100010000C943E000C943E000C943E000C943E0068
:100020000C943E000C943E000C943E000C943E0058
:100030000C943E000C943E000C943E000C943E0048
:100040000C9440000C943E000C943E000C943E0036
:100050000C943E000C943E000C943E000C943E0028
:100060000C943E000C943E0011241FBECFEFD8E04C
:10007000DEBFCDBF0E9450000C945B000C940000CA
:100080001F920F920FB60F9211248F9385B1809516
:1000900085B9A89A8F910F900FBE0F901F90189559
:1000A000259A2D9884B5836084BD81E080936E008D
:0A00B00078947894FFCFF894FFCF06
:00000001FF
