:020000020000FC
:100000003327002477276FEF6AB961E364B906BC30
:1000100004BC71E0746075BDAA2787E006BC0E942D
:100020003500A395A817D4F3AFE5A6BD95B390FF0F
:10003000FDCF91E095BB992795BD9FEF39273015EE
:1000400069F0139523950E943B000E944200992776
:100050009160942B952B95B903950BB995B1A1E0BF
:100060009A2795B9D4CFFFCFCBCF95B390FFFDCFD3
:1000700091E095BB089595E0191719F490E11127C7
:100080004927089595E0291719F490E22227592766
:020090000895D1
:00000001FF
